:020000020000FC
:100000004FEF4DBF41E24EBF40EF41B94FEF47B90F
:1000100048B93FEE11271430E1F332B94FEF4A955A
:10002000F1F740B14F704F3059F021E00027043014
:1000300039F0542F522341F00395220F0C941700EE
:10004000330F13950C940B00133049F0033059F023
:10005000402F440F400F410F4F5C0C943E0041E491
:10006000400F0C943E00103029F0113031F043E283
:100070000C943E004AE20C943E0040E048B90C94D7
:02008000090075
:00000001FF
